{
  "contractName": "BVAFounders",
  "abi": [
    {
      "inputs": [
        {
          "name": "ctr",
          "type": "address"
        }
      ],
      "payable": false,
      "stateMutability": "nonpayable",
      "type": "constructor",
      "signature": "constructor"
    },
    {
      "payable": true,
      "stateMutability": "payable",
      "type": "fallback"
    },
    {
      "constant": false,
      "inputs": [
        {
          "name": "to",
          "type": "address"
        }
      ],
      "name": "unlockTokens",
      "outputs": [],
      "payable": false,
      "stateMutability": "nonpayable",
      "type": "function",
      "signature": "0xcb67f948"
    },
    {
      "constant": false,
      "inputs": [
        {
          "name": "_amount",
          "type": "uint256"
        }
      ],
      "name": "withdrawEther",
      "outputs": [],
      "payable": false,
      "stateMutability": "nonpayable",
      "type": "function",
      "signature": "0x3bed33ce"
    }
  ],
  "bytecode": "0x608060405234801561001057600080fd5b50604051602080610a738339810180604052602081101561003057600080fd5b8101908080519060200190929190505050806000806101000a81548173ffffffffffffffffffffffffffffffffffffffff021916908373ffffffffffffffffffffffffffffffffffffffff16021790555033600160006101000a81548173ffffffffffffffffffffffffffffffffffffffff021916908373ffffffffffffffffffffffffffffffffffffffff160217905550506109a1806100d26000396000f3fe60806040526004361061004c576000357c0100000000000000000000000000000000000000000000000000000000900463ffffffff1680633bed33ce1461004e578063cb67f94814610089575b005b34801561005a57600080fd5b506100876004803603602081101561007157600080fd5b81019080803590602001909291905050506100da565b005b34801561009557600080fd5b506100d8600480360360208110156100ac57600080fd5b81019080803573ffffffffffffffffffffffffffffffffffffffff16906020019092919050505061020b565b005b600160009054906101000a900473ffffffffffffffffffffffffffffffffffffffff1673ffffffffffffffffffffffffffffffffffffffff163373ffffffffffffffffffffffffffffffffffffffff1614151561019f576040517f08c379a00000000000000000000000000000000000000000000000000000000081526004018080602001828103825260168152602001807f6d75737420626520636f6e7472616374206f776e65720000000000000000000081525060200191505060405180910390fd5b600160009054906101000a900473ffffffffffffffffffffffffffffffffffffffff1673ffffffffffffffffffffffffffffffffffffffff166108fc829081150290604051600060405180830381858888f19350505050158015610207573d6000803e3d6000fd5b5050565b600160009054906101000a900473ffffffffffffffffffffffffffffffffffffffff1673ffffffffffffffffffffffffffffffffffffffff163373ffffffffffffffffffffffffffffffffffffffff161415156102d0576040517f08c379a00000000000000000000000000000000000000000000000000000000081526004018080602001828103825260168152602001807f6d75737420626520636f6e7472616374206f776e65720000000000000000000081525060200191505060405180910390fd5b635fc51700421015151561034c576040517f08c379a00000000000000000000000000000000000000000000000000000000081526004018080602001828103825260068152602001807f6c6f636b6564000000000000000000000000000000000000000000000000000081525060200191505060405180910390fd5b60008060009054906101000a900473ffffffffffffffffffffffffffffffffffffffff1673ffffffffffffffffffffffffffffffffffffffff166370a08231306040518263ffffffff167c0100000000000000000000000000000000000000000000000000000000028152600401808273ffffffffffffffffffffffffffffffffffffffff1673ffffffffffffffffffffffffffffffffffffffff16815260200191505060206040518083038186803b15801561040857600080fd5b505afa15801561041c573d6000803e3d6000fd5b505050506040513d602081101561043257600080fd5b810190808051906020019092919050505090506000806361a64a804210156104fe576a010ad0bca349e3bb80000083101515156104d7576040517f08c379a000000000000000000000000000000000000000000000000000000000815260040180806020018281038252601a8152602001807f636865636b706f696e7420312062616c616e6365206572726f7200000000000081525060200191505060405180910390fd5b69c81c8d7a776acca0000090506104f781846108ea90919063ffffffff16565b91506107da565b6363877e004210156105b35769c81c8d7a776acca00000831015151561058c576040517f08c379a000000000000000000000000000000000000000000000000000000000815260040180806020018281038252601a8152602001807f636865636b706f696e7420322062616c616e6365206572726f7200000000000081525060200191505060405180910390fd5b6985685e51a4f1ddc0000090506105ac81846108ea90919063ffffffff16565b91506107d9565b636568b180421015610668576985685e51a4f1ddc000008310151515610641576040517f08c379a000000000000000000000000000000000000000000000000000000000815260040180806020018281038252601a8152602001807f636865636b706f696e7420332062616c616e6365206572726f7200000000000081525060200191505060405180910390fd5b695d62a86c59dc81a00000905061066181846108ea90919063ffffffff16565b91506107d8565b63674b368042101561071d57695d62a86c59dc81a0000083101515156106f6576040517f08c379a000000000000000000000000000000000000000000000000000000000815260040180806020018281038252601a8152602001807f636865636b706f696e7420342062616c616e6365206572726f7200000000000081525060200191505060405180910390fd5b69355cf2870ec725800000905061071681846108ea90919063ffffffff16565b91506107d7565b63692c6a004210156107d25769355cf2870ec72580000083101515156107ab576040517f08c379a000000000000000000000000000000000000000000000000000000000815260040180806020018281038252601a8152602001807f636865636b706f696e7420352062616c616e6365206572726f7200000000000081525060200191505060405180910390fd5b691aae7943876392c0000090506107cb81846108ea90919063ffffffff16565b91506107d6565b8291505b5b5b5b5b60008211156108e4576000809054906101000a900473ffffffffffffffffffffffffffffffffffffffff1673ffffffffffffffffffffffffffffffffffffffff1663a9059cbb85846040518363ffffffff167c0100000000000000000000000000000000000000000000000000000000028152600401808373ffffffffffffffffffffffffffffffffffffffff1673ffffffffffffffffffffffffffffffffffffffff16815260200182815260200192505050602060405180830381600087803b1580156108a757600080fd5b505af11580156108bb573d6000803e3d6000fd5b505050506040513d60208110156108d157600080fd5b8101908080519060200190929190505050505b50505050565b6000828211151515610964576040517f08c379a000000000000000000000000000000000000000000000000000000000815260040180806020018281038252601e8152602001807f536166654d6174683a207375627472616374696f6e206f766572666c6f77000081525060200191505060405180910390fd5b60008284039050809150509291505056fea165627a7a72305820f7d6edc5fa7a857235a9472a147fdabae543bb8e9c0dafd3a137232f8ea3434e0029",
  "source": "pragma solidity ^0.5.0;\n\nimport \"openzeppelin-solidity/contracts/math/SafeMath.sol\";\nimport \"./ERC20Interface.sol\";\n\ncontract BVAFounders {\n    using SafeMath for uint;\n\n    ERC20Interface erc20Contract;\n    address payable owner;\n\n\n    modifier isOwner() {\n        require(msg.sender == owner, \"must be contract owner\");\n        _;\n    }\n\n\n    // ------------------------------------------------------------------------\n    // Constructor\n    // ------------------------------------------------------------------------\n    constructor(ERC20Interface ctr) public {\n        erc20Contract = ctr;\n        owner         = msg.sender;\n    }\n\n\n    // ------------------------------------------------------------------------\n    // Unlock Tokens\n    // ------------------------------------------------------------------------\n    function unlockTokens(address to) external isOwner {\n        // Total Allocation : 1,260,000 BVA (4.5% of total supply)\n        // 1. 25% - 2020/12/01 (315,000 BVA) - timestamp 1606752000\n        // 2. 25% - 2021/12/01 (315,000 BVA) - timestamp 1638288000\n        // 3. 15% - 2022/12/01 (189,000 BVA) - timestamp 1669824000\n        // 4. 15% - 2023/12/01 (189,000 BVA) - timestamp 1701360000\n        // 5. 10% - 2024/12/01 (126,000 BVA) - timestamp 1732982400\n        // 6. 10% - 2025/12/01 (126,000 BVA) - timestamp 1764518400\n\n        require(now >= 1606752000, \"locked\");\n\n        uint balance = erc20Contract.balanceOf(address(this));\n        uint amount;\n        uint remain;\n\n        if (now < 1638288000) {\n            // 1st unlock : before balance must have at least 1,260,000 BVA\n            require(balance >= 1260000e18, \"checkpoint 1 balance error\");\n            remain = 945000e18;\n            amount = balance.sub(remain);\n        } else if (now < 1669824000) {\n            // 2nd unlock : before balance must have at least 945,000 BVA\n            require(balance >= 945000e18, \"checkpoint 2 balance error\");\n            remain = 630000e18;\n            amount = balance.sub(remain);\n        } else if (now < 1701360000) {\n            // 3rd unlock : before balance must have at least 630,000 BVA\n            require(balance >= 630000e18, \"checkpoint 3 balance error\");\n            remain = 441000e18;\n            amount = balance.sub(remain);\n        } else if (now < 1732982400) {\n            // 4th unlock : before balance must have at least 441,000 BVA\n            require(balance >= 441000e18, \"checkpoint 4 balance error\");\n            remain = 252000e18;\n            amount = balance.sub(remain);\n        } else if (now < 1764518400) {\n            // 5th unlock : before balance must have at least 252,000 BVA\n            require(balance >= 252000e18, \"checkpoint 5 balance error\");\n            remain = 126000e18;\n            amount = balance.sub(remain);\n        } else {\n            // 6th unlock : before balance must have at least 126,000 BVA\n            amount = balance;\n        }\n\n        if (amount > 0) {\n            erc20Contract.transfer(to, amount);\n        }\n    }\n\n\n    // ------------------------------------------------------------------------\n    // Withdraw ETH from this contract to `owner`\n    // ------------------------------------------------------------------------\n    function withdrawEther(uint _amount) external isOwner {\n        owner.transfer(_amount);\n    }\n\n\n    // ------------------------------------------------------------------------\n    // accept ETH\n    // ------------------------------------------------------------------------\n    function () external payable {\n    }\n}\n",
  "sourcePath": "/Users/jaylim/truffle/bavala/contracts/BVAFounders.sol",
  "compiler": {
    "name": "solc",
    "version": "0.5.0+commit.1d4f565a.Emscripten.clang"
  },
  "schemaVersion": "3.0.6",
  "updatedAt": "2019-07-11T16:35:34.406Z",
  "devdoc": {
    "methods": {}
  },
  "userdoc": {
    "methods": {}
  }
}