{
  "contractName": "BVATokenHolder",
  "abi": [
    {
      "constant": true,
      "inputs": [],
      "name": "name",
      "outputs": [
        {
          "name": "",
          "type": "string"
        }
      ],
      "payable": false,
      "stateMutability": "view",
      "type": "function",
      "signature": "0x06fdde03"
    },
    {
      "inputs": [
        {
          "name": "ctr",
          "type": "address"
        },
        {
          "name": "_name",
          "type": "string"
        }
      ],
      "payable": false,
      "stateMutability": "nonpayable",
      "type": "constructor",
      "signature": "constructor"
    },
    {
      "payable": true,
      "stateMutability": "payable",
      "type": "fallback"
    },
    {
      "constant": false,
      "inputs": [
        {
          "name": "to",
          "type": "address"
        },
        {
          "name": "amount",
          "type": "uint256"
        }
      ],
      "name": "transferTokens",
      "outputs": [],
      "payable": false,
      "stateMutability": "nonpayable",
      "type": "function",
      "signature": "0xbec3fa17"
    },
    {
      "constant": false,
      "inputs": [
        {
          "name": "_amount",
          "type": "uint256"
        }
      ],
      "name": "withdrawEther",
      "outputs": [],
      "payable": false,
      "stateMutability": "nonpayable",
      "type": "function",
      "signature": "0x3bed33ce"
    }
  ],
  "bytecode": "0x608060405234801561001057600080fd5b506040516107263803806107268339810180604052604081101561003357600080fd5b8101908080519060200190929190805164010000000081111561005557600080fd5b8281019050602081018481111561006b57600080fd5b815185600182028301116401000000008211171561008857600080fd5b5050929190505050816000806101000a81548173ffffffffffffffffffffffffffffffffffffffff021916908373ffffffffffffffffffffffffffffffffffffffff16021790555033600160006101000a81548173ffffffffffffffffffffffffffffffffffffffff021916908373ffffffffffffffffffffffffffffffffffffffff160217905550806002908051906020019061012792919061012f565b5050506101d4565b828054600181600116156101000203166002900490600052602060002090601f016020900481019282601f1061017057805160ff191683800117855561019e565b8280016001018555821561019e579182015b8281111561019d578251825591602001919060010190610182565b5b5090506101ab91906101af565b5090565b6101d191905b808211156101cd5760008160009055506001016101b5565b5090565b90565b610543806101e36000396000f3fe608060405260043610610057576000357c0100000000000000000000000000000000000000000000000000000000900463ffffffff16806306fdde03146100595780633bed33ce146100e9578063bec3fa1714610124575b005b34801561006557600080fd5b5061006e61017f565b6040518080602001828103825283818151815260200191508051906020019080838360005b838110156100ae578082015181840152602081019050610093565b50505050905090810190601f1680156100db5780820380516001836020036101000a031916815260200191505b509250505060405180910390f35b3480156100f557600080fd5b506101226004803603602081101561010c57600080fd5b810190808035906020019092919050505061021d565b005b34801561013057600080fd5b5061017d6004803603604081101561014757600080fd5b81019080803573ffffffffffffffffffffffffffffffffffffffff1690602001909291908035906020019092919050505061034e565b005b60028054600181600116156101000203166002900480601f0160208091040260200160405190810160405280929190818152602001828054600181600116156101000203166002900480156102155780601f106101ea57610100808354040283529160200191610215565b820191906000526020600020905b8154815290600101906020018083116101f857829003601f168201915b505050505081565b600160009054906101000a900473ffffffffffffffffffffffffffffffffffffffff1673ffffffffffffffffffffffffffffffffffffffff163373ffffffffffffffffffffffffffffffffffffffff161415156102e2576040517f08c379a00000000000000000000000000000000000000000000000000000000081526004018080602001828103825260168152602001807f6d75737420626520636f6e7472616374206f776e65720000000000000000000081525060200191505060405180910390fd5b600160009054906101000a900473ffffffffffffffffffffffffffffffffffffffff1673ffffffffffffffffffffffffffffffffffffffff166108fc829081150290604051600060405180830381858888f1935050505015801561034a573d6000803e3d6000fd5b5050565b600160009054906101000a900473ffffffffffffffffffffffffffffffffffffffff1673ffffffffffffffffffffffffffffffffffffffff163373ffffffffffffffffffffffffffffffffffffffff16141515610413576040517f08c379a00000000000000000000000000000000000000000000000000000000081526004018080602001828103825260168152602001807f6d75737420626520636f6e7472616374206f776e65720000000000000000000081525060200191505060405180910390fd5b6000809054906101000a900473ffffffffffffffffffffffffffffffffffffffff1673ffffffffffffffffffffffffffffffffffffffff1663a9059cbb83836040518363ffffffff167c0100000000000000000000000000000000000000000000000000000000028152600401808373ffffffffffffffffffffffffffffffffffffffff1673ffffffffffffffffffffffffffffffffffffffff16815260200182815260200192505050602060405180830381600087803b1580156104d757600080fd5b505af11580156104eb573d6000803e3d6000fd5b505050506040513d602081101561050157600080fd5b810190808051906020019092919050505050505056fea165627a7a72305820e14059c7f120e2abd16d39d96b1492f6ba9cce42bb4bbf004f258bf71debd17c0029",
  "source": "pragma solidity ^0.5.0;\n\nimport \"./ERC20Interface.sol\";\n\ncontract BVATokenHolder {\n    ERC20Interface erc20Contract;\n    address payable owner;\n    string public name;\n\n\n    modifier isOwner() {\n        require(msg.sender == owner, \"must be contract owner\");\n        _;\n    }\n\n\n    // ------------------------------------------------------------------------\n    // Constructor\n    // ------------------------------------------------------------------------\n    constructor(ERC20Interface ctr, string memory _name) public {\n        erc20Contract = ctr;\n        owner         = msg.sender;\n        name          = _name;\n    }\n\n\n    // ------------------------------------------------------------------------\n    // Unlock Tokens\n    // ------------------------------------------------------------------------\n    function transferTokens(address to, uint amount) external isOwner {\n        erc20Contract.transfer(to, amount);\n    }\n\n\n    // ------------------------------------------------------------------------\n    // Withdraw ETH from this contract to `owner`\n    // ------------------------------------------------------------------------\n    function withdrawEther(uint _amount) external isOwner {\n        owner.transfer(_amount);\n    }\n\n\n    // ------------------------------------------------------------------------\n    // accept ETH\n    // ------------------------------------------------------------------------\n    function () external payable {\n    }\n}\n",
  "sourcePath": "/Users/jaylim/truffle/bavala/contracts/BVATokenHolder.sol",
  "compiler": {
    "name": "solc",
    "version": "0.5.0+commit.1d4f565a.Emscripten.clang"
  },
  "schemaVersion": "3.0.6",
  "updatedAt": "2019-07-17T11:14:34.293Z",
  "devdoc": {
    "methods": {}
  },
  "userdoc": {
    "methods": {}
  }
}